{
  "contractName": "Voting",
  "abi": [
    {
      "anonymous": false,
      "inputs": [
        {
          "indexed": false,
          "internalType": "uint256",
          "name": "totalVoted",
          "type": "uint256"
        }
      ],
      "name": "toVoteEvent",
      "type": "event"
    },
    {
      "constant": true,
      "inputs": [
        {
          "internalType": "uint256",
          "name": "",
          "type": "uint256"
        }
      ],
      "name": "candidateList",
      "outputs": [
        {
          "internalType": "bytes32",
          "name": "CandidateName",
          "type": "bytes32"
        },
        {
          "internalType": "bytes32",
          "name": "partyName",
          "type": "bytes32"
        },
        {
          "internalType": "uint256",
          "name": "votes",
          "type": "uint256"
        }
      ],
      "payable": false,
      "stateMutability": "view",
      "type": "function"
    },
    {
      "constant": true,
      "inputs": [
        {
          "internalType": "address",
          "name": "",
          "type": "address"
        }
      ],
      "name": "voters",
      "outputs": [
        {
          "internalType": "uint256",
          "name": "candidateVoteId",
          "type": "uint256"
        },
        {
          "internalType": "bool",
          "name": "voted",
          "type": "bool"
        }
      ],
      "payable": false,
      "stateMutability": "view",
      "type": "function"
    },
    {
      "constant": false,
      "inputs": [
        {
          "internalType": "bytes32",
          "name": "_name",
          "type": "bytes32"
        },
        {
          "internalType": "bytes32",
          "name": "_party",
          "type": "bytes32"
        }
      ],
      "name": "addCandidate",
      "outputs": [],
      "payable": false,
      "stateMutability": "nonpayable",
      "type": "function"
    },
    {
      "constant": false,
      "inputs": [
        {
          "internalType": "uint256",
          "name": "candidateID",
          "type": "uint256"
        }
      ],
      "name": "toVote",
      "outputs": [],
      "payable": false,
      "stateMutability": "nonpayable",
      "type": "function"
    },
    {
      "constant": true,
      "inputs": [],
      "name": "getNumberOfCandidates",
      "outputs": [
        {
          "internalType": "uint256",
          "name": "",
          "type": "uint256"
        }
      ],
      "payable": false,
      "stateMutability": "view",
      "type": "function"
    },
    {
      "constant": true,
      "inputs": [],
      "name": "getNumberOfVoters",
      "outputs": [
        {
          "internalType": "uint256",
          "name": "",
          "type": "uint256"
        }
      ],
      "payable": false,
      "stateMutability": "view",
      "type": "function"
    },
    {
      "constant": true,
      "inputs": [],
      "name": "checkWinner",
      "outputs": [
        {
          "internalType": "uint256",
          "name": "wins",
          "type": "uint256"
        }
      ],
      "payable": false,
      "stateMutability": "view",
      "type": "function"
    },
    {
      "constant": true,
      "inputs": [],
      "name": "winnerVotes",
      "outputs": [
        {
          "internalType": "uint256",
          "name": "vote",
          "type": "uint256"
        }
      ],
      "payable": false,
      "stateMutability": "view",
      "type": "function"
    },
    {
      "constant": true,
      "inputs": [],
      "name": "winnerName",
      "outputs": [
        {
          "internalType": "bytes32",
          "name": "name",
          "type": "bytes32"
        }
      ],
      "payable": false,
      "stateMutability": "view",
      "type": "function"
    }
  ],
  "bytecode": "0x608060405234801561001057600080fd5b5061052f806100206000396000f3fe608060405234801561001057600080fd5b50600436106100935760003560e01c8063a1cec4ca11610066578063a1cec4ca1461012a578063a3ec138d14610158578063ad38867e146101bb578063b13c744b146101d9578063e2ba53f01461022957610093565b80637a84d13e146100985780637b3a74c6146100b657806384865b66146100d4578063a1adbb25146100f2575b600080fd5b6100a0610247565b6040518082815260200191505060405180910390f35b6100be610250565b6040518082815260200191505060405180910390f35b6100dc610275565b6040518082815260200191505060405180910390f35b6101286004803603604081101561010857600080fd5b81019080803590602001909291908035906020019092919050505061027f565b005b6101566004803603602081101561014057600080fd5b81019080803590602001909291905050506102e8565b005b61019a6004803603602081101561016e57600080fd5b81019080803573ffffffffffffffffffffffffffffffffffffffff169060200190929190505050610417565b60405180838152602001821515151581526020019250505060405180910390f35b6101c3610448565b6040518082815260200191505060405180910390f35b610205600480360360208110156101ef57600080fd5b81019080803590602001909291905050506104ab565b60405180848152602001838152602001828152602001935050505060405180910390f35b6102316104d5565b6040518082815260200191505060405180910390f35b60008054905090565b60006003600061025e610448565b815260200190815260200160002060020154905090565b6000600154905090565b60008060008154809291906001019190505590506040518060600160405280848152602001838152602001600081525060036000838152602001908152602001600020600082015181600001556020820151816001015560408201518160020155905050505050565b6000600460003373ffffffffffffffffffffffffffffffffffffffff1673ffffffffffffffffffffffffffffffffffffffff16815260200190815260200160002090508060010160009054906101000a900460ff16156103b0576040517f08c379a000000000000000000000000000000000000000000000000000000000815260040180806020018281038252600e8152602001807f416c74726561647920766f74656400000000000000000000000000000000000081525060200191505060405180910390fd5b60018160010160006101000a81548160ff021916908315150217905550600160036000848152602001908152602001600020600201600082825401925050819055506001600260008282540192505081905550600180600082825401925050819055505050565b60046020528060005260406000206000915090508060000154908060010160009054906101000a900460ff16905082565b6000806000905060008090505b60005481116104a657600360008281526020019081526020016000206002015482101561049957600360008281526020019081526020016000206002015491508092505b8080600101915050610455565b505090565b60036020528060005260406000206000915090508060000154908060010154908060020154905083565b6000600360006104e3610448565b81526020019081526020016000206000015490509056fea265627a7a723158203a90f1b9abcb5c345b46ff07d4f74eb8945f2aaa7f933f5edbd8702916df47e564736f6c63430005100032",
  "source": "pragma solidity ^0.5.16;\n\ncontract Voting {\n    uint totalCandidate;\n    uint totalVoter;\n    uint totalVoted;\n\n    struct Candidate {\n        bytes32 CandidateName;\n        bytes32 partyName;\n        uint votes;\n    }\n\n\n    struct Voter {\n        uint candidateVoteId;\n        bool voted;\n\n    }\n\n\n    mapping(uint => Candidate) public candidateList;\n    mapping(address => Voter) public voters;\n\n\n    function addCandidate(bytes32 _name, bytes32 _party) public  {\n        uint i = totalCandidate++;\n        candidateList[i] = Candidate(_name, _party, 0);\n    }\n\n\n    \n    event toVoteEvent(uint totalVoted);\n\n\n    function toVote(uint candidateID) public {\n        Voter storage sender = voters[msg.sender];\n        require(!sender.voted, \"Altready voted\");\n\n        sender.voted = true;\n        candidateList[candidateID].votes += 1;\n        totalVoted += 1;\n        totalVoter +=1;\n    }\n\n\n\n    function getNumberOfCandidates() public view returns (uint){\n        return totalCandidate;\n    }\n\n\n    function getNumberOfVoters() public view returns (uint){\n        return totalVoter;\n    }\n\n\n    function checkWinner() public view returns (uint wins){\n        uint winCount = 0;\n        for (uint i = 0; i <= totalCandidate; i++){\n            if (winCount < candidateList[i].votes){\n                winCount = candidateList[i].votes;\n                wins = i;\n            }\n        }\n    }\n\n\n\n    function winnerVotes() public view returns (uint vote){\n        vote = candidateList[checkWinner()].votes;\n    }\n\n\n    function winnerName() public view returns (bytes32 name){\n        name = candidateList[checkWinner()].CandidateName;\n    }\n\n\n}",
  "sourcePath": "/Users/salvatorefoggetti/Desktop/Ing.Software/speedvote1/contracts/Voting.sol",
  "compiler": {
    "name": "solc",
    "version": "0.5.16+commit.9c3226ce.Emscripten.clang"
  },
  "schemaVersion": "3.4.11",
  "updatedAt": "2022-12-27T23:32:53.717Z",
  "networkType": "ethereum",
  "devdoc": {
    "methods": {}
  },
  "userdoc": {
    "methods": {}
  }
}